:1000000019C094C127C026C025C024C023C022C067
:1000100021C020C01FC01EC01DC01CC01BC01AC0F4
:1000200019C018C017C016C015C014C013C012C024
:1000300011C010C011241FBECFEFD4E0DEBFCDBF72
:1000400021E0A0E0B1E001C01D92A330B207E1F7CA
:1000500051D18AC1D5CFE1E6F0E080E880831082FB
:10006000089584B18E6284B98CB580658CBD2A9A5E
:10007000299808958EBD0DB407FEFDCF8EB5089565
:10008000209A08955298E9E6F0E0808182608083AA
:1000900080818E7F8083E89A0895CF92DF92EF92DD
:1000A000FF920F931F93CF93DF93C82ED62E7A0122
:1000B000022FF894811102C080E2D80E8AE18A955D
:1000C000F1F700C02A988AE18A95F1F700C08D2DDA
:1000D000D1DF8AE18A95F1F700C0C0E0D0E010E0FE
:1000E00017C081E0C8120AC080EAD81639F08FEF35
:1000F000C1DFFE01E050FF4F808305C0F701EC0F28
:10010000FD1F8081B7DF8AE18A95F1F700C0219653
:10011000C017D10734F32A9A789480E091E0DF91F8
:10012000CF911F910F91FF90EF90DF90CF900895A6
:100130000F931F93CF93DF9300D000D01F92CDB7C2
:10014000DEB72FEF80E792E0215080409040E1F74A
:1001500000C0000011E0198321E0AE014F5F5F4F46
:1001600061E080E09ADF8FE2898321E0AE014F5F9A
:100170005F4F64E080E091DF198321E0AE014F5FC3
:100180005F4F62E080E089DF03E0098321E0AE0198
:100190004F5F5F4F63E080E080DF198321E0AE01B5
:1001A0004F5F5F4F65E080E078DF87E0898321E083
:1001B000AE014F5F5F4F66E080E06FDF12E11983B1
:1001C0001A831B831C831D8325E0AE014F5F5F4FA5
:1001D0006AE080E062DF19831A831B831C831D831E
:1001E00025E0AE014F5F5F4F60E180E056DF09839D
:1001F00021E0AE014F5F5F4F61E180E04EDF8EE1B5
:10020000898321E0AE014F5F5F4F60E080E045DF12
:100210002FEF80E792E0215080409040E1F700C04E
:1002200000000F900F900F900F900F90DF91CF91E3
:100230001F910F9108951F93CF93DF9300D000D0AB
:100240001F92CDB7DEB7182F2FEF80E792E0215035
:1002500080409040E1F700C0000019831A831B839F
:100260001C831D8325E0AE014F5F5F4F6AE080E095
:1002700014DF19831A831B831C831D8325E0AE01C1
:100280004F5F5F4F60E180E008DF2FEF80E792E093
:10029000215080409040E1F700C000000F900F9087
:1002A0000F900F900F90DF91CF911F910895CF93F2
:1002B000DF93EC0120E0AC0161EE81E0EEDE23E0B3
:1002C000AE0160EA81E0E9DE78948FE19EE4019777
:1002D000F1F700C00000299A95E39A95F1F7000024
:1002E00029988FE19EE40197F1F700C00000DF91AB
:1002F000CF910895CF93DF9300D01F92CDB7DEB793
:10030000AADEAFDEBDDEBEDE13DF289A2FEF89E660
:1003100098E1215080409040E1F700C0000028980B
:1003200082E189DFCE010196C2DFFFCF1F920F92DB
:100330000FB60F9211242F938F939F93F8942998BF
:10034000289A2FEF84E39CE0215080409040E1F711
:1003500000C00000289878949F918F912F910F9062
:0C0360000FBE0F901F901895F894FFCF6F
:00000001FF
