:1000000019C0CEC127C026C025C024C023C022C02D
:1000100021C020C01FC01EC01DC01CC01BC01AC0F4
:1000200019C018C017C016C015C014C013C012C024
:1000300011C010C011241FBECFEFD4E0DEBFCDBF72
:1000400021E0A0E0B1E001C01D92A430B207E1F7C9
:100050006DD1C4C1D5CFE1E6F0E080E880831082A5
:10006000089584B18E6284B98CB580658CBD2A9A5E
:10007000299808958EBD0DB407FEFDCF8EB5089565
:10008000209A08955298E9E6F0E0808182608083AA
:1000900080818E7F8083E89A08959AE19A95F1F79E
:1000A00000C02A989AE19A95F1F700C0E3DF8AE14F
:1000B0008A95F1F700C08FEFDDDF9AE19A95F1F7AD
:1000C00000C02A9A0895CF92DF92EF92FF920F9389
:1000D0001F93CF93DF93D82EC62E7A01022FF89468
:1000E000811102C080E2C80E8AE18A95F1F700C052
:1000F0002A988AE18A95F1F700C08C2DBBDF8AE14E
:100100008A95F1F700C010E01016110604F5C0E062
:10011000D0E081E0D8120EC080EAC81659F08FEF07
:10012000A9DFFE01E050FF4F80838AE18A95F1F755
:1001300000C009C0F701EC0FFD1F80819BDF8AE141
:100140008A95F1F700C02196C017D10714F32A9AB7
:10015000789480E091E0DF91CF911F910F91FF9013
:10016000EF90DF90CF9008950F931F93CF93DF937D
:1001700000D000D01F92CDB7DEB72FEF80E792E01E
:10018000215080409040E1F700C0000011E0198349
:1001900021E0AE014F5F5F4F61E080E094DF8FE2CE
:1001A000898321E0AE014F5F5F4F64E080E08BDF29
:1001B000198321E0AE014F5F5F4F62E080E083DF93
:1001C00003E0098321E0AE014F5F5F4F63E080E011
:1001D0007ADF198321E0AE014F5F5F4F65E080E079
:1001E00072DF87E0898321E0AE014F5F5F4F66E0F9
:1001F00080E069DF12E119831A831B831C831D834E
:1002000025E0AE014F5F5F4F6AE080E05CDF19835D
:100210001A831B831C831D8325E0AE014F5F5F4F54
:1002200060E180E050DF098321E0AE014F5F5F4F66
:1002300061E180E048DF8EE1898321E0AE014F5F1C
:100240005F4F60E080E03FDF2FEF80E792E02150DA
:1002500080409040E1F700C000000F900F900F9099
:100260000F900F90DF91CF911F910F9108951F93E1
:10027000CF93DF9300D000D01F92CDB7DEB7182FF9
:100280002FEF80E792E0215080409040E1F700C0DE
:10029000000019831A831B831C831D8325E0AE0194
:1002A0004F5F5F4F6AE080E00EDF19831A831B8384
:1002B0001C831D8325E0AE014F5F5F4F60E180E04E
:1002C00002DF2FEF80E792E0215080409040E1F77D
:1002D00000C000000F900F900F900F900F90DF91D3
:1002E000CF911F910895CF93DF93EC0120E0AC01F3
:1002F00061EE81E0E8DE23E0AE0160EA81E0E3DE6A
:1003000078948FE19EE40197F1F700C00000299AEC
:1003100095E39A95F1F7000029988FE19EE4019703
:10032000F1F700C00000DF91CF910895CF93DF93E4
:1003300000D01F92CDB7DEB78EDE93DEA1DEA2DE47
:1003400013DF289A2FEF89E698E1215080409040F2
:10035000E1F700C00000289887E09FDE809303014A
:1003600082E185DF80E3898381E38A8382E38B8373
:10037000CE010196B8DF289A2FEF84E39CE021504C
:1003800080409040E1F700C0000028982FEF84E300
:100390009CE0215080409040E1F700C00000EBCF8E
:1003A0001F920F920FB60F9211242F938F939F934A
:1003B000F8942998289A2FEF84E39CE021508040FC
:1003C0009040E1F700C00000289878949F918F91A9
:1003D0002F910F900FBE0F901F901895F894FFCF9C
:00000001FF
